:100000000C94AC040C9438070C94F0040C94F00499
:100010000C94F0040C94F0040C94F0040C94F00490
:100020000C94F0040C94F0040C94042A0C94D62A3A
:100030000C94DB200C94F0040C94F0040C94F00469
:100040000C94F0040C94F0040C94F0040C94F00460
:100050000C94F0040C9442210C94F0040C94F004E1
:100060000C94F0040C94F0040C94F0040C94F00440
:100070000C94F0040C94F0040C94F0040C94F00430
:100080000C94840F0C94F0040C94F0040C94F00481
:100090000C9453060C94F0040C94F0040C94F004AB
:1000A0000C94F0040C94F0040C94F00454086408CC
:1000B000760885088708A3089A08C017C017EF17A5
:1000C000EF172F185118791979195C187919031934
:1000D00003196C1979197919741910191019101953
:1000E00010191019101910191019101910191019C8
:1000F0001019101910191019101920193019371961
:100100003E1948193B2B5D2B482C5D2B482C9F2B0F
:10011000C22B482C172C2A2C07634236B79BD8A732
:100120001A39685618AEBAAB558C1D3CB7CC57631C
:10013000BD6DEDFD753EF6177231BF000000803FCA
:1001400008000000BE922449123EABAAAA2ABECDE6
:10015000CCCC4C3E00000080BEABAAAAAA3E000058
:100160000000BF000000803F000000000008417850
:10017000D3BB4387D1133D190E3CC3BD4282AD2B87
:100180003E68EC8276BED98FE1A93E4C80EFFFBE7F
:1001900001C4FF7F3F00000000002B0014001A0084
:1001A000080015001700437004001600070009003E
:1001B0000A00E1001D001B00060019000500427046
:1001C000E000E200E30040702A001C0018000C0070
:1001D0001200130029000B000D000E000F00330069
:1001E00034001100100036003700380028002C00C1
:1001F00041705000510052004F002B0014001A00B3
:10020000090013000A0043700400150016001700CF
:100210000700E1001D001B000600190005004270E8
:10022000E000E200E30040702A000D000F0018001B
:100230001C00330029000B00110008000C00120004
:1002400034000E00100036003700380028002C0063
:1002500041705000510052004F002B003400360016
:10026000370013001C00437004001200080018003F
:100270000C00E100330014000D000E001B00427062
:10028000E000E200E30040702A0009000A000600D6
:1002900015000F00290007000B00170011001600C1
:1002A0003800050010001A0019001D0028002C005D
:1002B00041705000510052004F0035021E021F02D3
:1002C0002002210222024C003A003B003C003D008B
:1002D0003E00010040004100420043004400010094
:1002E0000100010001000100010023022402250297
:1002F0002602270229003F002D022E022F02300283
:1003000031024500320264020100010001000100D7
:100310000100AB00AA00A900AE0035001E001F00BE
:100320002000210022004C002D002E002F00300064
:1003300031000100320064000100010001000100F1
:10034000010001000100010001002300240025003C
:100350002600270029003A003B003C003D003E00FB
:100360003F004000410042004300440045000100BE
:100370000100AB00AA00A900AE00010001000100CD
:100380000100010001000100010001000100010065
:10039000010001000100010039000100010001001D
:1003A0000100010001000100010001004A005200AB
:1003B0004D00010001000100500051004F000100FC
:1003C0000100010001000100010001000100010025
:1003D0000100010001000100010000000000000018
:1003E000000000000000000000000000000000000D
:1003F00000000000000000000000000000000000FD
:1004000000000000000000000000000000000000EC
:1004100000000000000000000000000000000000DC
:1007900000000000000000000000010000700100E7
:1007A0000100010001000100010001001570167038
:1007B00013700100010001000100010001000100AF
:1007C0000100010001000100010001000100010021
:1007D000010001004C000A703D703E703F70010046
:1007E0000100010001000100010001000100010001
:1007F0000100010001000100010016034C0065002A
:10080000740073002000530070006C0069007400D5
:100810000000160357006F006F0074007000610045
:1008200074006F006F0074000000040309040902E3
:100830005400030100A0FA090400000103010100B3
:100840000921110100012240000705810308000A67
:100850000904010001030102000921110100012224
:100860004D000705820308000A0904020001030085
:100870000000092111010001223600070583030849
:10088000000A1201100100000008EDFE60300100B6
:100890000102000105010980A101850216810026DF
:1008A000B7001A81002AB700751095018100C005B4
:1008B0000C0901A1018503160100269C021A010002
:1008C0002A9C02751095018100C005010902A10151
:1008D0000901A10005091901290515002501950542
:1008E0007501810295017503810105010930093106
:1008F0001581257F95027508810609381581257FA8
:10090000950175088106050C0A38021581257F9529
:100910000175088106C0C005010906A10105071976
:10092000E029E715002501950875018102950175FB
:1009300008810105081901290595057501910295A0
:1009400001750391010507190029FF150026FF0015
:10095000950675088100C00011241FBECFEFDAE0B4
:10096000DEBFCDBF04B603FE24C08091F103909199
:10097000F203A091F303B091F4038730904BA740AA
:10098000B04BB9F41092F1031092F2031092F303FA
:100990001092F40314BE84B7877F84BF88E10FB63A
:1009A000F89480936000109260000FBEE0E0F8E3DE
:1009B000099512E0A0E0B1E0E4E6F1E602C005909E
:1009C0000D92AA38B107D9F723E0AAE8B2E001C036
:1009D0001D92A13FB207E1F70E9450270C94B0305E
:1009E0000C940000A8E1B2E021E030E08D91E82F06
:1009F000E295EF70F0E041A18F70B90102C0660F7F
:100A0000771F8A95E2F7CB01962F9095492341A352
:100A100092A1982B92A372E0AC31B70739F70895F1
:100A2000089508950C9411058091AB03836088604C
:100A30008093AB030E94F204A2E1B2E021E030E037
:100A40008D91E82FE295EF70F0E041A18F70B90130
:100A500002C0660F771F8A95E2F7CB01962F90951B
:100A6000492341A392A1982B92A372E0A831B70722
:100A700039F7559A209AE2E9F2E0AAE8B2E0119239
:100A80001D9282E0EA39F807D1F70C94FA089F9298
:100A9000AF92BF92CF92DF92EF92FF920F931F938C
:100AA000CF93DF9380910101882319F000E010E0DB
:100AB00002C004E010E088E1C82E82E0D82EC0E039
:100AC000D0E0EE24E394F12CA80146575D4F5A0183
:100AD00025E0922EF60181916F01E82FE295EF70EB
:100AE000F0E021A18F70A70102C0440F551F8A9525
:100AF000E2F7CA01242B21A392A18095982392A307
:100B000050EA5A95F1F7E2E1F2E080E090E040E04F
:100B10005191A52FA295AF70B0E090962C9130E046
:100B20005F7002C0359527955A95E2F720FD07C002
:100B30002E2D082E01C0220F0A94EAF701C020E0F2
:100B4000422B01968630910519F7F501EC0FFD1F38
:100B50008081841719F04083909200010E94F20472
:100B60002196C430D10509F0B5CF809100018823CA
:100B7000E1F0815080930001882339F08FE99FE0F4
:100B80000197F1F700C0000010C080E090E00E5621
:100B90001D4FF801E80FF91FD501A80FB91F2C91BF
:100BA0002083019684309105A1F781E0DF91CF91F8
:100BB0001F910F91FF90EF90DF90CF90BF90AF907B
:100BC0009F900895CF93DF9380910101882319F0BE
:100BD000C4E0D0E002C0C0E0D0E00E94AA070097C5
:100BE00091F420E030E0CE56DD4FF901E156FD4FA3
:100BF0004081FE01E20FF31F40832F5F3F4F2430FF
:100C0000310599F702C081E090E0DF91CF9108951E
:100C1000CF930E944705C82F0E94E205892BC1F09F
:100C20005D9890919A029F5F90939A02963098F007
:100C300080910101882319F0E4E0F0E002C0E0E0D7
:100C4000F0E0EE56FD4F108211821282138203C033
:100C50005D9A10929A020E94FC088C2FCF91089501
:100C60000E94470580910101882319F020E030E0BF
:100C700002C024E030E080E090E02E563D4FF901C4
:100C8000E80FF91F4081FC01E156FD4F40830196BA
:100C900084309105A1F70895E82FF0E0EE56FD4F5E
:100CA0008081089508951F920F920FB60F9211241C
:100CB0008F939F93EF93FF938091B900887F803843
:100CC00069F038F48823C9F18036C9F510929B0287
:100CD00036C0883A09F1883BF9F031C080919B0217
:100CE000811111C08091BB0080939C0280919C0275
:100CF000803120F010929C0280E001C081E091E000
:100D000090939B021DC0E0919C02F0E08091BB009B
:100D1000EA53FC4F808308C0E0919C02F0E0EA5364
:100D2000FC4F80818093BB0080919C0290E00196F3
:100D30008F70992780939C0202C01092BC0081E0C2
:100D40009091BC0095688295880F880F807C892BD4
:100D50008093BC00FF91EF919F918F910F900FBEF8
:100D60000F901F901895E8EDF0E0808180618083FE
:100D70008AE18A95F1F700C08091D90081700895C9
:100D80008AE090E00E947A3091E0811101C090E009
:100D9000909301010E94B306882319F00E942B074B
:100DA00002C00E942F07789408950E9414050E94A3
:100DB0003006FDCF0E94C0060E94B306811102C01A
:100DC0000E94D5060895509A08955098589A08950B
:100DD000589A08951F93CF93DF93C82F0E94E3067C
:100DE00018E0D0E0115088F0CE01012E02C0959598
:100DF00087950A94E2F780FF03C00E94E80601C0CD
:100E0000589880E88A95F1F7EDCFDF91CF911F9147
:100E100008950E94E506489BFECF80E88A95F1F789
:100E200008950E94E50698E080E029B12170880FBE
:100E3000822B20E82A95F1F725E02A95F1F70000AA
:100E4000915099F708950E94E306589880E88A9592
:100E5000F1F70C94E8060E94E3060C94E8060E9461
:100E6000E506E89AE9E6F0E080818C7F80830895CA
:100E70001F920F920FB60F921124CF92DF92FF9222
:100E80000F931F932F933F934F935F936F937F9392
:100E90008F939F93AF93BF93EF93FF93CF93DF9382
:100EA0001F92CDB7DEB70E942307C12CD12CF12CA5
:100EB000860101561D4FF80180810E94EA060E94BA
:100EC0002307F8018081F80EFFEFCF1ADF0A84E0D4
:100ED000C816D10469F78F2D0E94EA060E942307E5
:100EE000E0E8EA95F1F7F0E4FA95F1F70E941107CE
:100EF00080939E020E94230710919E020E94110778
:100F000089830E9423070E94E5068981181721F032
:100F100080919D02816003C080919D028E7F8093AD
:100F20009D020F90DF91CF91FF91EF91BF91AF9113
:100F30009F918F917F916F915F914F913F912F91F1
:100F40001F910F91FF90DF90CF900F900FBE0F90E9
:100F50001F901895CF92DF92FF920F931F93CF931C
:100F6000DF931F92CDB7DEB7F8940E94E30658983E
:100F700085E08A95F1F700000E94E5060E94E806E8
:100F8000E0E8EA95F1F7489934C00E940907C12CBE
:100F9000D12CF12C0E941107860101561D4FF8013A
:100FA00080830E940907F8018081F80EFFEFCF1AB5
:100FB000DF0A84E0C816D10469F70E94110789830B
:100FC0000E9409078981F81214C080919E020E9434
:100FD000EA060E94090780919E020E94EA060E948A
:100FE00009070E94E3060E94E806789480E090E0FA
:100FF00003C0789481E090E00F90DF91CF911F9132
:101000000F91FF90DF90CF9008950F931F932FEFD4
:1010100089EF90E0215080409040E1F700C000004F
:1010200000E010E0980140E065E070E08AE191E0C6
:101030000E9400131F910F910C9410050F931F93A2
:1010400000E010E0980140E063E070E082E091E0B1
:101050000E9400132FEF82E597E0215080409040DE
:10106000E1F700C000001F910F910C949A0ECF93EE
:10107000DF93EC010E947E20BE0180E090E0DF91D2
:10108000CF910C94E51D0F931F93CF93FC01ED536B
:10109000F047E730F10508F060C0EA5AFF4FDB0186
:1010A0001296CC910C947430CC2309F457C000E014
:1010B00010E0980140E064E070E082EB91E00E9473
:1010C000001381E090E00FC0CC2309F447C000E09A
:1010D00010E0980140E066E070E082E491E00E9458
:1010E000001382E090E00E94370832C0CC23B1F1B7
:1010F00000E010E0980140E068E070E082E791E0F5
:101100000E94001384E090E0EECF83E001C084E011
:10111000CC2341F00E945C1E40E164E083E00E9429
:10112000B70816C00E947D1E40E164E083E00E9483
:10113000B70814C085E0CC2319F00E945C1E0EC0D5
:101140000E947D1E0AC080E1CC2321F00E945C1E1B
:10115000C0E004C00E947D1E01C0C1E08C2FCF9171
:101160001F910F91089581E008950C944308CF9248
:10117000DF92EF92FF920F931F9301E010E020E0C7
:1011800030E06801790104C0CC0CDD1CEE1CFF1CB2
:101190008A95D2F7D701C60104C0000F111F221F84
:1011A000331F6A95D2F7802B912BA22BB32B009182
:1011B0009603109197032091980330919903082387
:1011C00019232A233B23081719072A073B0749F449
:1011D000842F1F910F91FF90EF90DF90CF900C9490
:1011E0005C1E842F1F910F91FF90EF90DF90CF90A6
:1011F0000C947D1E0C9405080E94320E0C9412056E
:1012000008950C9400090C9401090E94E7190E94AA
:101210009A0E0E941E082FEF84E39CE0215080402C
:101220009040E1F700C0000087E797E7909301083E
:10123000809300080C9467210F931F93CF93DF9343
:101240008C01FC01C081D181CE010E94121FBE0120
:101250000E94DA0BEC01B8010E94B508882309F45A
:1012600012C1B801CE010E94C10C882309F40BC140
:10127000B801CE010E94690C882309F404C1C4316D
:10128000F0E7DF0708F0CDC0C23080E7D80708F4E8
:10129000A3C0F8018281882309F4AAC00E946B20B0
:1012A000811102C00E944C200E94832090E0909304
:1012B000E3038093E203C230F0E7DF0721F480917B
:1012C000E203816082C0C33080E7D80721F48091B7
:1012D000E20382607AC0C430E0E7DE0721F4809147
:1012E000E203846072C0C530F0E7DF0719F4809133
:1012F000E20327C0C63080E7D80721F48091E203DB
:10130000806163C0C730E0E7DE0721F48091E2032B
:1013100080625BC0C830F0E7DF0721F48091E20310
:10132000806453C0C93080E7D80721F48091E2037C
:1013300080684BC0CA30E0E7DE0729F48091E20301
:101340008460886042C0CB30F0E7DF0721F48091F1
:10135000E2038E7F3AC0CC3080E7D80721F4809139
:10136000E2038D7F32C0CD30E0E7DE0721F48091CB
:10137000E2038B7F2AC0CE30F0E7DF0719F48091BB
:10138000E20322C0CF3080E7D80721F48091E20346
:101390008F7E1BC0C031E0E7DE0721F48091E203BD
:1013A0008F7D13C0C131F0E7DF0721F48091E203A4
:1013B0008F7B0BC0C231D04721F48091E2038F773D
:1013C00004C08091E2038B7F877F8093E20380914A
:1013D000E2030E94872057C0C115E0E7DE0779F0DD
:1013E000C130D047A1F081E08093A3028093A40292
:1013F000C801DF91CF911F910F910C94B308F801B0
:101400008281882309F43FC00E9405093CC0F8018D
:1014100082818823C1F18091AB0381608093AB030B
:1014200032C0CB3380E7D807A1F4F801828188234A
:1014300021F01092A30282E016C08091A3028111D4
:1014400006C086E20E94531686E20E94261782E0BA
:1014500018C0CC33D04739F6F8018281882331F0A7
:101460001092A40280E20E9475170DC08091A40220
:10147000811106C087E20E94531687E20E94261758
:1014800080E20E947C1780E0DF91CF911F910F9145
:10149000089526E0729FF001112440E3849FE00D3F
:1014A000F11D1124E60FF11DEE0FFF1FE656FE4F52
:1014B000859194910E94EC0B811520E49207B0F580
:1014C000811540E3940708F0E5C0803E9105D8F40B
:1014D000803C910508F06BC0883A910578F4853A14
:1014E000910508F06AC08130910509F45EC108F4E5
:1014F00015C18430910508F058C110C18D3B91058C
:1015000008F466C00BC18F3F910509F048F4803F95
:10151000910508F0B4C0883E910508F446C1FEC0AC
:10152000811520E2920708F0ACC00895811543E5CB
:10153000940790F4811522E5920708F0CFC0811539
:1015400041E5940708F0C5C0811520E5920708F031
:10155000A4C09F70906A0895811545E59407D0F462
:10156000811524E5920708F0CEC0282F26952695F0
:1015700040E2249F90011124AC014370552781E083
:1015800090E002C0880F991F4A95E2F7822B932BB7
:101590009A680895811546E5940708F4B9C09C013E
:1015A00030562115304108F0B9C09F70B5C0FC011C
:1015B000EE0FFF1FE658F94F6AC0853A910509F40E
:1015C000B0C0863A910509F4AFC083E890E408956D
:1015D000883A910509F4ABC0893A910509F4AAC08B
:1015E0008A3A910509F4A9C08B3A910509F4A8C07B
:1015F0008C3A910509F4A7C08B3B910509F4A6C06C
:101600008C3B910509F4A5C08D3A910509F4A4C05D
:10161000803B910509F4A3C08E3A910509F4A2C05C
:101620008F3A910509F4A1C0813B910509F4A0C04E
:10163000823B910509F49FC0833B910509F49EC04C
:10164000843B910509F49DC0853B910509F49CC03C
:10165000863B910509F49BC0873B910509F49AC02C
:10166000883B910509F499C0893B910509F498C01C
:101670008A3B910509F097C08AE296E40895906547
:1016800008959F70880F991F8650984FFC0185918F
:10169000949108959927906C0895482F437021E004
:1016A00030E002C0220F331F4A95E2F73C68AC01DC
:1016B00064E0569547956A95E1F74370342B8F7037
:1016C0008695869540E2849FC0011124822B932B3E
:1016D0000895982F8827816F906A0895282F26955E
:1016E000269540E2249F90011124AC0143705527B8
:1016F00081E090E002C0880F991F4A95E2F7822BA3
:10170000932B9C680895982F8827846F906A08957A
:101710008F719927982F88279062089580E090E034
:10172000089581E890E4089582E890E4089582EEB7
:1017300094E4089589EE94E408958AEE94E408957B
:1017400085EB94E4089586EB94E4089583EB94E4A8
:10175000089584EB94E4089587EB94E408958CEC69
:1017600094E408958DEC94E4089583E895E4089555
:101770008AE895E4089582E995E4089584E995E47A
:10178000089581E296E4089583E296E4089584E260
:1017900096E4089585E296E4089586E296E4089535
:1017A00087E296E4089580E094E4089580E090E074
:1017B0000895089596E0799FF001112490E3899FA0
:1017C000E00DF11D1124E60FF11DEE0FFF1FE6568F
:1017D000FE4F8591949108958238910549F1B0F4B6
:1017E0008133910509F459C048F48932910509F40F
:1017F0004FC08A32910509F455C00895853391058B
:1018000009F441C08933910599F00895833E91050B
:1018100031F138F4803E910591F0823E9105A9F0B6
:101820000895863E910501F1873E910539F10895AD
:101830002091E20320FD3BC021FD39C00895809135
:10184000E20380FF34C089E341C08091E20382FF5C
:1018500032C08091E20384FF2CC080E037C08091C9
:10186000E20382FD28C0F5CF8091E20383FF25C00B
:101870008091E20384FDF1CF87EE28C08091E203DE
:1018800083FD1BC0F5CF8091E20385FF18C019C00E
:101890008091E20385FF15C012C08091E20386FFAC
:1018A00012C013C08091E20386FF0FC00CC080EE0F
:1018B0000DC083EE0BC082EE09C086EE07C085E343
:1018C00005C089E203C081E301C08AE290E0089587
:1018D0000895CF93DF93EC01FB018281811102C057
:1018E00081E040C08091B202811125C0C431D0474F
:1018F000B9F70E94680C81E08093B2020E940D212A
:101900009093B1028093B0021092A5021092A702A8
:101910001092A6021092A9021092A8021092AB0295
:101920001092AA021092AD021092AC021092AF0275
:101930001092AE0216C08091B0029091B1020E9446
:101940001921883C910560F68091A502E82FF0E00E
:10195000EE0FFF1FEA55FD4FD183C0838F5F809349
:10196000A50280E0DF91CF9108951092FA020C94C5
:101970009A0E089581E08093FA020C94B90C0895B0
:101980000895AF92BF92CF92DF92EF92FF920F93A2
:101990001F93CF93DF93CDB7DEB7A3970FB6F8941D
:1019A000DEBF0FBECDBF5C018B0185E1A81680E7CD
:1019B000B80639F4FB0182818823B1F10E949413A7
:1019C0000BC0F6E1AF16F0E7BF0641F4FB018281E0
:1019D000882351F10E949D1380E033C1F7E1AF16D7
:1019E000F0E7BF0649F4FB0182818823B9F10E9428
:1019F00090138111EFCFE2CFF8E1AF16F0E7BF0609
:101A000039F4FB0182818823B9F10E94BA0CE4CF3A
:101A1000F9E1AF16F0E7BF0639F4FB0182818823B4
:101A200059F10E94B50CD8CFFAE1AF16F0E7BF0626
:101A300049F4F80182818823F9F08091FA0281113A
:101A4000F0CFE3CFFBE1AF16F0E7BF0639F4F801C2
:101A50008281882389F00E94A4130BC0FCE1AF1699
:101A6000F0E7BF0649F4F8018281882329F00E943B
:101A7000AF130E94C00CB0CF8091FA02882309F402
:101A8000DFC0F0EEAF16B10489F4F801828188233B
:101A900009F45FC00E949A0E81E08093F9021092CF
:101AA000F8021092F7021092B60296CFF2EEAF163D
:101AB000B10499F4F8018281882309F44AC00E9494
:101AC0009A0E8091F902882319F081E08093F80240
:101AD0001092F9021092F7027FCFF3EEAF16B10425
:101AE000B1F4F80182818823A1F18091F802882362
:101AF00081F10E949A0E1092F90281E08093F70220
:101B00001092B5021092B4021092B30265CFF2E5C2
:101B1000AF16B10459F4F8018281882309F491C009
:101B20008091D2019091D3010A970EC0F1E5AF16D2
:101B3000B10479F4F8018281882309F482C080918C
:101B4000D2019091D3010A969093D3018093D20150
:101B500043CF2091D60183E2EFEEF1E0DE01119652
:101B600001900D928A95E1F7F8018081E1E0F0E0C3
:101B7000EC0FFD1FE80FF11D8091D4019091D5016C
:101B8000E80FF91F6081772767FD7095620F711D5F
:101B9000882777FD8095982F0E94822D20E030E0E5
:101BA00040E451E40E94E72C6B017C01F801818143
:101BB00068E070E0681B7109882777FD8095982F91
:101BC0000E94822D9B01AC01C701B6010E947F2CAF
:101BD0009B01AC0160E070E080E090E40E94F52E93
:101BE00020E030E04CED50E40E94922E6B017C012D
:101BF000F80182818823D1F04FE050E0C701B6019F
:101C00000E94A0128091F9028823A1F08091B6026F
:101C100094E0899FF0011124E954FD4FC082D182E4
:101C2000E282F3828F5F8093B60204C0C701B601DF
:101C30000E94CD0E81E0EFEFAE16B10410F4CCCED1
:101C400081E0A3960FB6F894DEBF0FBECDBFDF9143
:101C5000CF911F910F91FF90EF90DF90CF90BF90A9
:101C6000AF9008958091F702882309F448C08091CD
:101C7000B3029091B402009779F40E940D219093E1
:101C8000B4028093B3028091B50290E0009771F4A2
:101C90008091B60290E00AC00E9419212091D201E1
:101CA0003091D3012817390740F308950197FC01BB
:101CB000EE0FFF1FEE0FFF1FE954FD4F6081718192
:101CC000828193810E94CD0EE091B50284E0E89F6D
:101CD000F0011124E954FD4F60817181828193816B
:101CE0004FE050E00E94A0128091B50290E0019672
:101CF0006091B60270E00E9460308093B502089552
:101D00000E946B20811102C00E944C200E948C20F6
:101D10008093DA033E9A809171008D7F80937100E9
:101D200082E0809390008AE18093910081E080932B
:101D3000FD0208958091FD02811102C00E94800E73
:101D400010924D0310924C03809171008D7F80930F
:101D50007100809190008F738093900010920F0318
:101D600010920E03109246031092470310924803FC
:101D7000109249031092450310924403E4E2F3E009
:101D8000A4E1B3E011921192119211921D921D9251
:101D900083E0E434F807B1F708958F929F92AF92F1
:101DA000BF92CF92DF92EF92FF920F931F93CF9348
:101DB000DF936B017C0180910E03882309F497C0A7
:101DC0008091FD02811102C00E94800E04E413E0A4
:101DD000C7E0D0E0A7019601D8019E918E917E9137
:101DE0006E918D010E94E32C811145C0FE01EE0F22
:101DF000FF1FEE0FFF1FEC5DFC4F1082118212825D
:101E000013829E01220F331F2C5E3C4FD9011D927D
:101E10001C9240E050E060E070E06C5F7F4F4E5FEE
:101E20005F4FC730D10551F121967F01E60EF71EB5
:101E3000D7018D909D90AD90BC9087010450110901
:101E4000D8018D929D92AD92BC921397D7011D92AD
:101E50001D921D921C9213977901E40EF51ED70175
:101E60000D911C91C7010297DC010D931C93D701C2
:101E70001D921C92D2CF219708F0ACCF80914C03D9
:101E800090914D03019797FD05C090934D0380936A
:101E90004C0304C010924D0310924C0380914C03EC
:101EA00090914D0320914A0330914B032817390735
:101EB00024F010924B0310924A03892BC1F48091B5
:101EC00071008D7F80937100809190008F7380935B
:101ED000900010924603109247031092480310920C
:101EE0004903109245031092440310920E03DF91B0
:101EF000CF911F910F91FF90EF90DF90CF90BF9007
:101F0000AF909F908F9008951F920F920FB60F92EF
:101F100011244F925F926F927F928F929F92AF9215
:101F2000BF92CF92DF92EF92FF922F933F934F9306
:101F30005F936F937F938F939F93AF93BF93CF9351
:101F4000DF93EF93FF9380910E03882309F49AC1E6
:101F5000C0914C03D0914D031C161D060CF092C18C
:101F60004090FE025090FF026090000370900103C9
:101F700020E030E0A901C301B2010E948E2E1816A4
:101F80000CF065C0C130D10509F452C080914A03FC
:101F900090914B03BE010E9460305C0190934B0313
:101FA00080934A03C0901003D0901103E090120375
:101FB000F090130320E030E040E85FE3C701B60192
:101FC0000E947F2C6093100370931103809312037F
:101FD00090931303F501EE0FFF1FEE0FFF1FEC5D53
:101FE000FC4FA301920160817181828193810E94E3
:101FF000E72C20E030E040E05EE30E94922E9B015F
:10200000AC01C701B6010E948E2E18168CF4C501D2
:102010000196BE010E94603090934B0380934A0367
:1020200010921003109211031092120310921303D6
:10203000E0914A03F0914B03EE0FFF1FEE0FFF1FDD
:10204000EC5DFC4F6081718182819381CFC0C09033
:102050004603D0904703E0904803F090490320E006
:1020600030E0A901C701B6010E94E32C2197882323
:1020700009F4A2C0FE01EE0FFF1FEE0FFF1FEC5D83
:10208000FC4F80809180A280B380A5019401C7019C
:10209000B6010E94E32C87FF31C0A501940160E0E6
:1020A00070E08CED93EC0E94E72C20E030E040E4FF
:1020B00051E40E94E72C20E030E040E05FE30E9422
:1020C000922E9B01AC0160E070E080E090E40E9401
:1020D000F52E9B01AC01C501B4010E94922E9B011B
:1020E000AC01C701B6010E94E32C87FF07C0A7011E
:1020F000960160E070E08CED93E439C0A501940195
:10210000C701B6010E948E2E18160CF055C0A5010D
:10211000940160E070E08CED93E40E94E72C20E0F5
:1021200030E040E451E40E94E72C20E030E040E061
:102130005FE30E94922E9B01AC0160E070E080E0C2
:1021400090E40E94F52E9B01AC01C501B4010E94F0
:10215000922E9B01AC01C701B6010E948E2E18166B
:102160005CF5A701960160E070E08CED93EC0E94B5
:10217000E72C20E030E040E451E40E94E72C20E02E
:1021800030E040E05FE30E94922E9B01AC0160E0F2
:1021900070E080E090E40E94F52E9B01AC01C70145
:1021A000B6010E94922E609346037093470380937A
:1021B00048039093490312C0CC0FDD1FCC0FDD1FE5
:1021C000CC5DDC4F88819981AA81BB8180934603D5
:1021D00090934703A0934803B0934903609146034B
:1021E0007091470380914803909149032091FB022D
:1021F0003091FC022F3F4FEF340731F02F5F3F4FFC
:102200003093FC022093FB020E94BA136B017C0105
:1022100020E034E244EF51E40E94E32C87FF08C041
:1022200026EFC22E28E2D22E24EFE22E21E4F22E57
:1022300020E030E040E051E4C701B6010E94922E58
:102240009B01AC0160E074E284E79BE40E94E72C10
:102250006B017C010E94542D70939700609396004F
:102260002091D7013091D8014091D9015091DA01E4
:10227000C701B6010E94922E0E94542D70939900BE
:102280006093980080910F03882309F432C1C090B5
:102290000A03D0900B03E0900C03F0900D0320E0B4
:1022A00030E0A901C701B6010E948E2E1816D4F5A0
:1022B0008091FB029091FC028F3F2FEF920729F053
:1022C00001969093FC028093FB02C701B6010E9425
:1022D000BA1320E030E040E051E40E94922E9B01CE
:1022E000AC0160E074E284E79BE40E94E72C6B01A0
:1022F0007C010E94542D709397006093960020916A
:10230000D7013091D8014091D9015091DA01C7012C
:10231000B6010E94922E0E94542D709399006093F2
:10232000980008C0109297001092960010929900A1
:102330001092980060910403709105036F5F7F4FC6
:1023400070930503609304032091960030919700E9
:1023500080E090E0232BF1F0C0919600D09197009F
:102360000E94802D6B017C01BE0180E090E00E9404
:10237000802D9B01AC016091060370910703809151
:102380000803909109030E94E72C20E03FEF4FE7FC
:1023900057E410C00E94802D6B017C0120E030EEDC
:1023A0004FEF54E460910603709107038091080396
:1023B000909109030E94922E9B01AC01C701B601C6
:1023C0000E948E2E87FD95C0209102032F5F2093DF
:1023D000020330E08091D6039091D7032817390784
:1023E000A0F08091E103882319F0109202030DC040
:1023F000809171008D7F80937100809190008F7328
:102400008093900010920F037CC080910303C091D1
:102410000203811128C0C090DB03D090DC03E09060
:10242000DD03F090DE0320E030E0A901C701B60132
:102430000E948E2E1816BCF481E080930303109244
:102440000A0310920B0310920C0310920D03C0921A
:102450000603D0920703E0920803F0920903C150EB
:10246000C093020342C0109203031092FC02109228
:10247000FB02E091D803F091D90348E0C49FE00D3E
:10248000F11D112480819181A281B38180930A037F
:1024900090930B03A0930C03B0930D0320E030E066
:1024A00040E85EE364817581868197810E94922E67
:1024B0006B017C016091DB0170E080E090E00E94A4
:1024C000802D20E030E048EC52E40E94E72C9B0194
:1024D000AC01C701B6010E94922E6093060370936F
:1024E0000703809308039093090310920503109249
:1024F00004038091DA0380FD04C010920F03109250
:102500000E03FF91EF91DF91CF91BF91AF919F911A
:102510008F917F916F915F914F913F912F91FF909C
:10252000EF90DF90CF90BF90AF909F908F907F9073
:102530006F905F904F900F900FBE0F901F90189567
:10254000CF92DF92EF92FF92CF93DF936B017C01EA
:10255000EA018091FD02811102C00E94800E8091EB
:10256000DA0380FF46C080914C0390914D03089799
:102570000CF03FC0809171008D7F8093710080913D
:102580000F0381110E949A0E81E080930E03109236
:10259000FC021092FB0220E030E0A901C701B60165
:1025A0000E948E2E1816DCF480914C0390914D03FE
:1025B000FC01EE0FFF1FEE0FFF1FEC5DFC4FC08212
:1025C000D182E282F382FC01EE0FFF1FEC5EFC4F32
:1025D000D183C083019690934D0380934C038091E7
:1025E0007100826080937100809190008068809378
:1025F0009000DF91CF91FF90EF90DF90CF90089502
:102600009F92AF92BF92CF92DF92EF92FF920F9381
:102610001F93CF93DF93EC015B01942E6801790146
:102620008091FD02811102C00E94800E8091DA0328
:1026300080FF6AC0809171008D7F809371008091CE
:102640000E0381110E949A0E81E080930F03D093B4
:10265000D903C093D803B092D703A092D603909227
:10266000E103C092DB03D092DC03E092DD03F09241
:10267000DE031092100310921103109212031092B5
:1026800013031092020388819981AA81BB818093F0
:102690000A0390930B03A0930C03B0930D0320E067
:1026A00030E040E85EE36C817D818E819F810E94F5
:1026B000922E6B017C016091DB0170E080E090E084
:1026C0000E94802D20E030E048EC52E40E94E72C8C
:1026D0009B01AC01C701B6010E94922E60930603D4
:1026E00070930703809308039093090310920503E6
:1026F0001092040380917100826080937100809138
:102700009000806880939000DF91CF911F910F918E
:10271000FF90EF90DF90CF90BF90AF909F90089583
:102720008091DA03817008958091DA03816080934B
:10273000DA030E9490200C94BF0C8091DA038E7F04
:102740008093DA030C94902080914E0390E00196E0
:1027500066E070E00E94603080934E03089580919F
:102760004E0390E0019766E070E00E946030809335
:102770004E0308958F929F92AF92BF92CF92DF92B5
:10278000EF92FF92CF93DF936B017C01C091FB022C
:10279000D091FC02BE0180E090E00E94802D4B01B0
:1027A0005C01A701960160E070E08CE594E40E9472
:1027B000E72C9B01AC01C501B4010E94922E0E943E
:1027C000542D9B0140914E03433009F473C028F40B
:1027D000442351F04130E9F02DC1443009F4A0C048
:1027E000453009F4E0C026C180E090E0A0E0BFE3FE
:1027F0008093D7019093D801A093D901B093DA01C7
:102800001092FE021092FF02109200031092010338
:1028100011C11092FE021092FF021092000310925A
:1028200001036431710540F46A30710560F520E000
:1028300030E040E85EE32BC0693C710508F0AAC0B7
:1028400080E090E00E94802D20E030E040EA51E4FA
:102850000E947E2C20E030E044E353E40E94E72C09
:102860009B01AC010E94922E20E030E040E05EE34C
:102870000E94922E9B01AC0160E070E080E09EE33C
:102880000E947E2C44C020E030E040E05FE3C701BE
:10289000B6010E94922E6B017C0180E090E0A0E0E6
:1028A000BEE38093D7019093D801A093D901B09350
:1028B000DA01C0C01092FE021092FF0210920003D3
:1028C000109201034AE0469F9001479F300D11246A
:1028D000C90168EB7BE00E944C30BC016C5D754027
:1028E00077FF03C0719561957109882777FD809501
:1028F000982F0E94822D2EE333EC4EE259E30E9482
:10290000922E20E030E040EC5EE30E947F2C60934A
:10291000D7017093D8018093D9019093DA018AC0CE
:102920001092FE021092FF02109200031092010317
:10293000CE0183709927892BE1F0BE016170772762
:1029400080E090E00E94802D20E030E040E05EE3F7
:102950000E94922E20E030E040E45FE30E947F2C52
:102960006093D7017093D8018093D9019093DA01D5
:102970000CC080E090E0A0E0BFE38093D70190938B
:10298000D801A093D901B093DA01C770DD27CD2B10
:1029900009F050C01092D7011092D8011092D901BD
:1029A0001092DA0147C01092FE021092FF021092BC
:1029B000000310920103812C912CA12C9FE3B92ECE
:1029C0008092D7019092D801A092D901B092DA01F9
:1029D0002739310578F180E090E00E94802D20E0D9
:1029E00030E047E153E40E947E2C20E030E04AE7EB
:1029F00054E40E94E72C20E030E048E452E40E94D6
:102A0000922E20E030E040EA51E40E94C42D0E9462
:102A10004F2DFB01EE0FFF1FEE0FFF1FE05EFD4F7E
:102A20002081318142815381C701B6010E94922EDB
:102A30006B017C01C701B601DF91CF91FF90EF9050
:102A4000DF90CF90BF90AF909F908F90089590931C
:102A50005403809353030895E0915303F09154037A
:102A6000309721F00190F081E02D099480E00895E5
:102A7000E0915303F0915403309721F00280F381E9
:102A8000E02D09940895E0915303F0915403309799
:102A900021F00480F581E02D0994089520915103DF
:102AA000309152038217930771F0909352038093F1
:102AB0005103E0915303F0915403309721F00680C5
:102AC000F781E02D0994089520914F033091500330
:102AD0008217930771F09093500380934F03E09116
:102AE0005303F0915403309721F00084F185E02DD9
:102AF000099408950C94DA060E9404210E9414059A
:102B00000C947921CF92DF92EF92FF920F931F9353
:102B1000CF93DF93CDB7DEB72B970FB6F894DEBF18
:102B20000FBECDBF0E94080636E5E32E33E0F32E3C
:102B300000E010E0C02E802F0E944C06F701D190DB
:102B40007F01D826B1F40F5F1F4F0830110591F7B0
:102B50008FEF89838A831B820E940D218160782FE9
:102B60009D838C8349815A816B818D810E942516BA
:102B700041C09091AB0391FF04C08B870E94520625
:102B80008B8520E030E04D2D50E0922FBA01022ECF
:102B900002C0759567950A94E2F760FF25C02E8301
:102BA000CF82EE24E394F12C02C0EE0CFF1C9A9528
:102BB000E2F790E08E219F2121E0892B09F420E0AB
:102BC00028870E940D218160782F9A8789874E81FE
:102BD0005F8168858A850E942516F801EA5AFC4FB4
:102BE00080818E25808306C02F5F3F4F26303105C0
:102BF00061F6A9CF0E940B23109155030E942C155A
:102C00001817A1F00E942C15809355032B960FB630
:102C1000F894DEBF0FBECDBFDF91CF911F910F9112
:102C2000FF90EF90DF90CF900C9403092B960FB696
:102C3000F894DEBF0FBECDBFDF91CF911F910F91F2
:102C4000FF90EF90DF90CF900895CF93DF93CDB7B3
:102C5000DEB72B970FB6F894DEBF0FBECDBF4F8304
:102C6000588769877A878B87DE01119686E0FD0198
:102C700011928A95E9F785E0FE01379601900D9251
:102C80008A95E1F749815A816B817C818D819E8192
:102C90000E94B71C2B960FB6F894DEBF0FBECDBFB7
:102CA000DF91CF910895CF93C82F882309F4CCC02A
:102CB000823859F40E942C1581FDC6C089E30E9418
:102CC000921F0E941D2089E30CC0833879F40E9472
:102CD0002C1580FDB9C083E50E94921F0E941D2023
:102CE00083E50E94B31FCF910C941D20843859F4C2
:102CF0000E942C1582FDA8C087E40E94921F0E94AA
:102D00001D2087E4EECF8CEF8C0F813A48F48C2F96
:102D10000E942A25811198C08C2F0E94921FE3CF18
:102D200080E28C0F883048F4C77081E001C0880FC2
:102D3000CA95EAF70E94D41FD6CF8BE58C0F83305B
:102D400078F4C53A29F0C63A31F482E890E005C03B
:102D500081E890E002C083E890E0CF910C944E159A
:102D600088E58C0F853108F06FC0C83A61F1C93A27
:102D700069F1CA3A71F1CB3A79F1CC3A81F1CB3BA6
:102D800089F1CC3B91F1CD3A99F1C03BA1F1CE3A1A
:102D9000A9F1CF3AB1F1C13BB9F1C23BC1F1C33B9B
:102DA000C9F1C43BD1F1C53BD9F1C63BE1F1C73B09
:102DB000E9F1C83BF1F1C93BF9F1CA3B09F03FC069
:102DC0008AE292E03EC082EE90E03BC089EE90E065
:102DD00038C08AEE90E035C085EB90E032C086EBDB
:102DE00090E02FC083EB90E02CC084EB90E029C0F2
:102DF00087EB90E026C08CEC90E023C08DEC90E057
:102E000020C083E891E01DC08AE891E01AC082E901
:102E100091E017C084E991E014C081E292E011C012
:102E200083E292E00EC084E292E00BC085E292E081
:102E300008C086E292E005C087E292E002C080E02E
:102E400090E0CF910C946415CF910895882309F4F4
:102E50004BC0823859F40E942C1581FF45C089E38C
:102E60000E94921F0E941D2089E30CC0833871F4D8
:102E70000E942C1580FF38C083E50E94921F0E949B
:102E80001D2083E50E94B31F0C941D20843859F443
:102E90000E942C1582FF28C087E40E94921F0E9486
:102EA0001D2087E4EFCF9CEF980F913A58F390E202
:102EB000980F983050F4877091E001C0990F8A956F
:102EC000EAF7892F0E94DA1FDFCF9BE5980F933036
:102ED00020F480E090E00C944E15885A853120F45F
:102EE00080E090E00C9464150895882321F00E94FE
:102EF000D41F0C941D200895882321F00E94DA1F0E
:102F00000C941D2008958F929F92AF92BF92CF9202
:102F1000DF92EF92FF920F931F93CF93DF931F9255
:102F2000CDB7DEB74C01A62E472FFC01E580E29419
:102F30008FE0E822F280FF2021F079830E94F11FC8
:102F4000498149830E948B1F4981882381F0FF209A
:102F500071F080E28A0D883050F082E00E94741F88
:102F60000E948B1FBB24B394B826498101C0B12CA9
:102F7000E42FE295EF70F0E0E35AFF4F0C947430C9
:102F8000842F807F142F1F70882311F01295107FDB
:102F9000FF2089F0112309F495C180E28A0D883061
:102FA00020F4812F0E94D41F03C0812F0E94E41FB0
:102FB0000E941D2087C18A2D0E942617112309F423
:102FC00098C180E28A0D883020F4812F0E94DA1F98
:102FD00003C0812F0E94EA1F0E941D208AC1242F56
:102FE000207F842F8F70203211F08295807FAA205D
:102FF00021F0F1E0AF16B1F021C0FF2041F0EE204A
:1030000039F191E0E91224C00E94042072C1EE203F
:1030100021F0E1E0EE1609F46CC189830E940720DB
:1030200089810BC1FF2029F0F5E0FE1508F461C18C
:103030000FC094E09E1508F45CC1FFC0FF2059F05A
:10304000EE2031F0F401958190FF3CC19F70958393
:103050000E9475174EC1EE2009F4EFC039C1242F2C
:1030600026952695237030E02115310521F0213079
:10307000310561F03EC1FF2021F08A2D942F93701D
:1030800002C080E090E00E944E1533C1FF2021F085
:103090008A2D942F937002C080E090E00E94641506
:1030A00028C18A2DFF2019F00E94132202C00E941D
:1030B0007B220E9400231DC1842F837009F04EC023
:1030C000F11017C12A2D229526952770220F220F65
:1030D0008A2D8F70C82ED12CE12CF12C022E04C029
:1030E000CC0CDD1CEE1CFF1C0A94D2F7A4FE10C011
:1030F0006FE070E080E090E004C0660F771F881FEB
:10310000991F2A95D2F7609570958095909503C088
:1031100060E070E0CB01242F26952695237030E0E7
:103120002230310569F02330310589F06C297D2981
:103130008E299F292130310571F00E94091ED9C0C6
:103140006C297D298E299F290E94231ED2C00E94AE
:10315000091EC701B6010E94EF1DCBC0FF2019F068
:10316000842F817001C08695882309F4C2C02A2D5E
:10317000229526952770220F220F8A2D8F70C82E38
:10318000D12CE12CF12C022E04C0CC0CDD1CEE1C49
:10319000FF1C0A94D2F7A4FE10C06FE070E080E03C
:1031A00090E004C0660F771F881F991F2A95D2F7F9
:1031B000609570958095909503C060E070E0CB01BC
:1031C000242F26952695237030E02230310569F0B2
:1031D0002330310589F06C297D298E299F292130E2
:1031E000310571F00E94DD1E84C06C297D298E2975
:1031F0009F290E94F71E7DC00E94DD1EC701B601F7
:103200000E94C31E76C00A2D10E0F801E05EF109AD
:10321000E531F10508F052C0E359FF4F0C947430CA
:103220001A2D1F70842F8F71FF2021F00E945C1EC9
:10323000812F0ECF0E947D1E812F0E947C1759C0C6
:10324000FF2049F0F4E0FE1508F453C0842F8F717D
:103250000E94A21E4EC085E08E1508F44AC0F6CF2B
:10326000FF2039F0842F8F710E945C1E42C0FF2026
:10327000C9F3842F8F710E947D1E3BC0FF2029F06F
:10328000842F8F710E94471E34C00E943D1E31C0A2
:10329000FF2051F0142F1F71812F0E945C1E63E0EC
:1032A000812F0E946B1F25C081E00E94741F91E056
:1032B0009E15F8F482E00E94741F1BC0FF2031F0BD
:1032C000EE2081F28A2D0E94531613C0EE2089F25F
:1032D0008A2D0E9426170DC04F706A2DC4010E94CE
:1032E000D60B0E94641D05C04F706A2DC4010E9458
:1032F000D90BBB20F1F00E94671F80FD1AC0F401BA
:1033000012820E94611F0E945C1EC4010E94A719C4
:103310000E94611F0F90DF91CF911F910F91FF903D
:10332000EF90DF90CF90BF90AF909F908F900C94D4
:103330007D1E0F90DF91CF911F910F91FF90EF9025
:10334000DF90CF90BF90AF909F908F9008950F9394
:103350001F93CF93DF93EC01288139818B819C816E
:10336000892B31F03F3F11F080E003C02F3FE1F7A0
:1033700081E0811113C0CE010E941C09882371F0E5
:10338000688179818A810E945D1F8C010E94111FD2
:103390000E94E41DB801CE010E948317DF91CF91F6
:1033A0001F910F9108950E94F11F0E9401200E9419
:1033B000C61F0E941D200E94AC230E94002380E0B3
:1033C00090E00E944E1580E090E00C9464150E94FD
:1033D000E11F0C94D3190E94521F292F22952F70A0
:1033E00030E02C3031054CF42A3031056CF4225099
:1033F000310922303105B0F407C02C30310571F0AD
:103400002F30310559F00EC0803F31F018F4803E66
:1034100048F402C0843F31F481E0089593FB88278B
:1034200080F9089580E00895CF93DF9300D000D015
:103430001F92CDB7DEB70F900F900F900F900F90A7
:10344000DF91CF910895CF93DF9300D000D000D0CB
:10345000CDB7DEB726960FB6F894DEBF0FBECDBF50
:10346000DF91CF9108951F93CF93DF93C0915E03B7
:1034700016E080915F03C81799F0D0E01C9FF0011F
:103480001D9FF00D1124E05AFC4F40815181628153
:103490007381848195810E94231A2196C770E9CF98
:1034A000DF91CF911F910895409190035091910326
:1034B000609192037091930380919403909195038E
:1034C0000C94231ACF938091950382958F7009F005
:1034D0005FC080919203882309F45AC020915E0353
:1034E000A0915F0360919003709191038091930389
:1034F0009091940331E06F3F09F030E0B32FC6E0C4
:103500002A1709F445C0009721F07F3F21F44B2F83
:1035100003C041E001C040E030E040FD35C0C29F43
:10352000F001C39FF00D1124E05AFC4F4181741348
:103530002BC04081641328C04281411125C04381C2
:1035400054814817590710F441505109481B590B31
:10355000483C5105C8F4809195038F708061809339
:10356000950386E0829FF001839FF00D1124EB59B3
:10357000FC4F80818F708061808380E993E00E949E
:10358000A719CF910C94331A2F5F3F4F2770B8CFF4
:10359000CF910895CF92DF92EF92FF920F931F93F6
:1035A000CF93DF93CDB7DEB762970FB6F894DEBF47
:1035B0000FBECDBF8C0185E0F801DE011D960190A4
:1035C0000D928A95E1F7D8014C9111965C91119773
:1035D00012966C9112971396ED90FC90149770913F
:1035E0009003E0919103209193033091940321156E
:1035F000310531F0EF3F31F481E07F3F19F403C032
:1036000081E001C080E0B82FB170CB2E80FD6CC18D
:10361000D0909203DD2009F4F5C0F0919503E216F5
:10362000F30638F0C701821B930B883C910548F0E4
:103630009BC0209530952E0D3F1D283C310508F08C
:1036400093C08F2F807F09F052C0E51314C074130C
:1036500012C0D62E61110FC0FF70F061F093950378
:103660000E94541A80E993E00E94A7198091950363
:10367000F80185836CC1EF2831F05F3F31F481E0C0
:103680004F3F19F403C081E001C080E080FD03C01A
:1036900081E0862701C080E0F82FF170FF2E80FFC7
:1036A0001CC080915E0320915F0336E0821709F40D
:1036B00028C190E0389FF001399FF00D1124E05AA5
:1036C000FC4F7181571306C07081471303C072818C
:1036D000671303C001968770E9CFD62E662309F4DD
:1036E00036C18091950381608093950353C0E513A3
:1036F00008C0741306C0611104C0D8011596FC936C
:10370000AEC04D875E878D859E856A8B0E94EB19C2
:103710006A89882329F1D62E662311F12091950319
:10372000822F82958F7090E002970CF460C0809198
:1037300090039091910398878F831986FB86EA8680
:103740002C87CE01079651C0E51731F14D875E8772
:103750008D859E856A8B0E94EB196A8981112EC026
:10376000C8010E94A719A4C08F2F807F69F77E2D02
:10377000F98AE88A89890E94141A80E993E00E94F4
:10378000A719E0E9F3E086E0DF011D928A95E9F7E9
:103790000E94541AD12CDBC07413D8CF6111D6CF3C
:1037A000D8011596FC93C8010E94A719E0E9F3E03F
:1037B00086E0DF011D928A95E9F7C9C0D62E6623FF
:1037C00079F220919503822F82958F7090E0029775
:1037D00074F080919003909191039A8389831B8266
:1037E000FD82EC822E83CE0101960E94A71986E00D
:1037F000F801A0E9B3E001900D928A95E1F70E94EB
:10380000621A6FC0E216F30628F0C701821B930B01
:103810009C0104C0209530952E0D3F1D283C31059C
:1038200008F052C0D62E662309F49ACFE5132CC0B7
:1038300074132AC08091950380FD1DC0982F929526
:103840009F70C9F0D80115968C9315979F3039F069
:103850009F5F9295907F8F70892B15968C93C801EE
:103860000E94A71986E0F801A0E9B3E001900D924B
:103870008A95E1F736C086E0F801A0E9B3E001904F
:103880000D928A95E1F763C04D875E878D859E8591
:103890000E94EB19882379F086E0F801A0E9B3E0F3
:1038A00001900D928A95E1F70E94621A0E94541AC3
:1038B000DD24D3944CC0809195038160809395035F
:1038C000C8010E94A71943C07E2DF98AE88A898918
:1038D0000E94141AE0E9F3E086E0DF011D928A9568
:1038E000E9F70E94541A33C0662309F439CF4D8793
:1038F0005E878D859E850E94EB19882309F430CF61
:10390000CBCF4D875E878D859E850E94521F292FC4
:1039100022952F7030E0223031052CF49F7041F059
:10392000811106C00CC0243031052CF49F7049F47D
:10393000805E883020F0C8010E94A719CF2CDC2CB3
:1039400006C0D80115969C91907F91F7F8CF8D2DE8
:1039500062960FB6F894DEBF0FBECDBFDF91CF9158
:103960001F910F91FF90EF90DF90CF9008951F93DC
:10397000CF93DF93CDB7DEB72C970FB6F894DEBFA9
:103980000FBECDBF4F83588769877A878B879C8707
:10399000CE0107960E94CA1A8823C1F02F8138856C
:1039A0008A859B85892B31F03F3F11F080E003C071
:1039B0002F3FE1F781E0811147C04F81588569852C
:1039C0007A858B859C850E94231A3EC086E0FE0185
:1039D0003796DE01119601900D928A95E1F7FF81ED
:1039E000E8854A855B854115510531F0EF3F31F49B
:1039F00081E0FF3F19F403C081E001C080E080FD59
:103A000023C020915F0330E0C90101968770992798
:103A100060915E0370E086179707F1F1F983EA83FE
:103A20005D834C8396E0929FD001939FB00D11244B
:103A3000A05ABC4FFE01319601900D929A95E1F784
:103A400080935F030E94331A16E080915E03909189
:103A50005F03891779F1189FC0011124805A9C4F88
:103A60000E94CA1A882331F1E0915E031E9FF00183
:103A70001124E05AFC4F408151816281738184811D
:103A800095810E94231A80915E0390E001968770D1
:103A9000992780935E03D9CF0E94E71910925F03A4
:103AA00010925E03E0E9F3E086E0DF011D928A9563
:103AB000E9F7CACF2C960FB6F894DEBF0FBECDBF84
:103AC000DF91CF911F910895EF92FF920F931F9373
:103AD000CF93DF93FC01009709F46FC0F12CEE2423
:103AE000E394EF0121968491843740F4843008F008
:103AF00055C0813081F0823021F15FC0853709F4F3
:103B000047C0C0F19CE7980F903708F056C08F77F8
:103B10000E94261745C08F010E5F1F4FFE01849142
:103B200090E2980F983050F48770FE2D01C0FF0F7F
:103B30008A95EAF78F2F0E94F41F15C00E94531632
:103B400014C08F010E5F1F4FFE01849190E2980F09
:103B5000983068F48770FE2D01C0FF0F8A95EAF750
:103B60008F2F0E94FA1F0E941D20E80119C00E9499
:103B70002617FBCFCF010296FE01C491CC2361F042
:103B8000EFE9FFE03197F1F700C00000C150F6CF38
:103B9000CF010296FE01F490EC0102C00E94531680
:103BA0008F2D882341F0EFE9FFE03197F1F700C056
:103BB00000008150F6CFFE0194CFDF91CF911F918D
:103BC0000F91FF90EF900895089560939A0370937A
:103BD0009B0380939C0390939D030C94D3190F93A4
:103BE0001F9300919A0310919B0320919C033091A5
:103BF0009D03062B172B282B392B00939A03109328
:103C00009B0320939C0330939D031F910F910C9471
:103C1000D3190F931F9300919A0310919B03209146
:103C20009C0330919D0306231723282339230093F7
:103C30009A0310939B0320939C0330939D031F9141
:103C40000F910C94D3190F931F9300919A03109125
:103C50009B0320919C0330919D030627172728275B
:103C6000392700939A0310939B0320939C0330936E
:103C70009D031F910F910C94D319109296031092EB
:103C8000970310929803109299030C94D31941E072
:103C900050E060E070E004C0440F551F661F771FBE
:103CA0008A95D2F7409396035093970360939803B5
:103CB000709399030C94D31941E050E060E070E0F8
:103CC00004C0440F551F661F771F8A95D2F7809155
:103CD000960390919703A0919803B0919903842B38
:103CE000952BA62BB72B8093960390939703A093C5
:103CF0009803B09399030C94D31941E050E060E02D
:103D000070E004C0440F551F661F771F8A95D2F7D5
:103D1000409550956095709580919603909197038A
:103D2000A0919803B091990384239523A623B723E8
:103D30008093960390939703A0939803B09399036D
:103D40000C94D31941E050E060E070E004C0440FEF
:103D5000551F661F771F8A95D2F780919603909121
:103D60009703A0919803B091990384279527A627DC
:103D7000B7278093960390939703A0939803B093EB
:103D800099030C94D3190F931F93009196031091EC
:103D900097032091980330919903062B172B282B1A
:103DA000392B009396031093970320939803309335
:103DB00099031F910F910C94D3190F931F930091A6
:103DC000960310919703209198033091990306234D
:103DD00017232823392300939603109397032093E6
:103DE0009803309399031F910F910C94D3190F935B
:103DF0001F9300919603109197032091980330919F
:103E0000990306271727282739270093960310932D
:103E1000970320939803309399031F910F910C946B
:103E2000D3190895CF92DF92EF92FF920F931F93D1
:103E3000CF93DF93EC01C0909A03D0909B03E09066
:103E40009C03F0909D038091960390919703A0911D
:103E50009803B0919903C82AD92AEA2AFB2A0FE1CC
:103E600010E0B701A601002E04C07695679557951E
:103E700047950A94D2F740FD05C00150110988F713
:103E800080E007C0BE01802F0E94490A0197A9F374
:103E9000802FDF91CF911F910F91FF90EF90DF90D6
:103EA000CF900895CF93DF93EC010E94121FBE01C3
:103EB0000E94490ADF91CF910895CB010E94521FC1
:103EC000089580919E0385958595859508958091A7
:103ED0009E038770089598E0899F90011124622BBA
:103EE00060939E030C945C1E40919E0380958423F6
:103EF00080939E03982F977069F450E0282F332702
:103F000027FD30954217530729F0859585958595AE
:103F10000C947D1E089590919E03977081E009F4A2
:103F200080E008954091DC015091DD0120E030E017
:103F30009FEFFA01E20FF31F6281681799F09F3F2C
:103F400019F4611101C0922F2F5F3F4F26303105C8
:103F500081F79F3F39F0FA01E90FF11D97FDFA95BE
:103F60008283089508954091DC015091DD0120E0A5
:103F700030E0FA01E20FF31F9281981301C0128220
:103F80002F5F3F4F26303105A1F7089581E090E083
:103F9000E091DC01F091DD01E80FF91F108201963C
:103FA00088309105A9F708959091AA03982B9093D2
:103FB000AA03089580959091AA0398239093AA0349
:103FC00008951092AA0308959091A903982B9093B5
:103FD000A903089580959091A90398239093A9032C
:103FE00008951092A90308959091A803982B909397
:103FF000A803089580959091A80398239093A8030F
:1040000008951092A803089580939F030895109235
:104010009F0308954091DC015091DD0120E030E0E4
:1040200080E0FA01E20FF31F918191118F5F2F5F02
:104030003F4F27303105A9F70895E091DC01F09159
:10404000DD018091AA038083E091DC01F091DD0124
:1040500080819091A903892B8083E091DC01F0910C
:10406000DD0180819091A803892B808390919F032B
:10407000992361F0E091DC01F091DD018081892BD1
:1040800080830E940A20811110929F038091DC019D
:104090009091DD010C9438156DEE7EEF80E090E09C
:1040A0000E949A3060E082E090E00E94883060E0F8
:1040B00083E090E00E94883060E084E090E00E941D
:1040C000883060E085E090E00E9488306FEF87E004
:1040D00090E00C94883080E090E00E94823021E0F3
:1040E0008D3E9E4F09F020E0822F089582E090E0FF
:1040F0000C947A3083E090E00C947A30682F83E05F
:1041000090E00C94883084E090E00C947A30682F32
:1041100084E090E00C94883087E090E00C947A3052
:10412000682F87E090E00C9488308091E803843019
:1041300021F11092AC0320E488E190E00FB6F894EE
:10414000A895809360000FBE2093600080E00E94DD
:10415000030983B7817F846083BF83B7816083BF96
:104160007894889583B78E7F83BF88E10FB6F894E3
:1041700080936000109260000FBE08950895089526
:10418000CF930E94BE200E9408060E94BF20C0E07C
:104190008C2F0E944C06811105C0CF5FC830C1F73B
:1041A00080E001C081E0CF9108950E94E7190E944C
:1041B0002C150C9403091F920F920FB60F92112425
:1041C0008F939F93AF93BF938091AC03811113C0E2
:1041D0008091AD039091AE03A091AF03B091B00375
:1041E0004196A11DB11D8093AD039093AE03A093A2
:1041F000AF03B093B003BF91AF919F918F910F9098
:104200000FBE0F901F90189582E084BD93E095BD7E
:104210009AEF97BD80936E0008952FB7F894809120
:10422000AD039091AE03A091AF03B091B0032FBF47
:104230000895CF92DF92EF92FF920F931F932FB7C3
:10424000F8944091AD035091AE036091AF0370912B
:10425000B0032FBF6A017B01EE24FF248C0120E014
:1042600030E0C016D106E206F30610F441505109C1
:10427000481B590BCA011F910F91FF90EF90DF90DF
:10428000CF9008951F920F920FB60F9211248F9323
:104290009F93AF93BF938091AD039091AE03A09194
:1042A000AF03B091B0030196A11DB11D8093AD0382
:1042B0009093AE03A093AF03B093B003BF91AF91BF
:1042C0009F918F910F900FBE0F901F90189587E7C9
:1042D00097E790930108809300082AE088E190E036
:1042E0000FB6F894A895809360000FBE20936000ED
:1042F000FFCF0E946B20811102C00E944C200E94BF
:1043000076208093AB030E94832090E09093E30398
:104310008093E2030E947A20682F70E080E090E0B2
:104320000C94E51D8091B30380FF0BC06091E10107
:1043300085E0689FB001112475956795759567951F
:104340002AC081FF09C06091E10185E0689FB0014A
:104350001124759567951FC082FF07C06091E10128
:1043600085E0689FB001112416C04091B403442336
:10437000C9F06091E001461788F72091E10185E0DE
:10438000289F90011124429FC001439F900D11244A
:1043900070E00E9460306038710540F4611571056D
:1043A00039F002C065E070E0862F08958FE7089528
:1043B00081E008958091B30380FF08C06091DF0120
:1043C00070E0759567957595679521C081FF06C06A
:1043D0006091DF0170E07595679519C082FF04C098
:1043E0006091DF0170E010C08091B4038823C1F0B8
:1043F0006091DE018617A0F79091DF01989FC001C0
:10440000112470E00E9460306038710528F4611555
:10441000710521F0862F08958FE7089581E00895B2
:1044200061E070E0F4CF803F21F40E9492218195F9
:1044300004C0813F29F40E9492218093B70308951C
:10444000823F21F40E949221819504C0833F29F488
:104450000E9492218093B6030895893F19F40E9427
:10446000DA2105C08A3F31F40E94DA2181958093D8
:10447000B80308958B3F21F40E94DA21819504C08E
:104480008C3F29F40E94DA218093B9030895843F78
:1044900021F48091B503816017C0853F21F480919C
:1044A000B503826011C0863F21F48091B50384601A
:1044B0000BC0873F21F48091B503886005C0883F19
:1044C00031F48091B50380618093B50308958D3FE9
:1044D00021F48091B30381600BC08E3F21F4809161
:1044E000B303826005C08F3F29F48091B3038460D9
:1044F0008093B3030895803F39F48091B70387FF19
:104500006CC01092B70369C0813F29F48091B70352
:104510001816BCF362C09091B603823F29F497FF4E
:104520005CC01092B60359C0833F19F41916CCF33E
:1045300054C0893F41F48091B80318160CF04DC067
:104540001092B8034AC08A3F29F48091B80387FFCC
:1045500044C0F6CF8B3F39F48091B90387FF3DC04B
:104560001092B9033AC08C3F29F48091B903181610
:10457000BCF333C0843F21F48091B5038E7F17C014
:10458000853F21F48091B5038D7F11C0863F21F4D2
:104590008091B5038B7F0BC0873F21F48091B503D9
:1045A000877F05C0883F31F48091B5038F7E80936B
:1045B000B50313C08D3F21F48091B3038E7F0BC0F0
:1045C0008E3F21F48091B3038D7F05C08F3F29F486
:1045D0008091B3038B7F8093B3038091B6038111E5
:1045E0000EC08091B70381110AC08091B803811178
:1045F00006C08091B903811102C01092B4030895DE
:1046000085EB93E00E9443150E940D219093B20325
:104610008093B10308951F93CF93DF938091B103EB
:104620009091B2030E9419214091B403442321F0D8
:104630002091E20130E006C02091E3015AE0259F7D
:10464000900111248217930708F482C08091B60369
:104650001091B703D091B803C091B903811107C07D
:10466000111105C0D11103C0CC2309F471C04F3F13
:1046700019F04F5F4093B403181624F40E9492215E
:104680008093B6038091B60387FF05C00E949221F4
:1046900081958093B603111624F40E949221809391
:1046A000B7038091B70387FF05C00E9492218195CF
:1046B0008093B7036091B603662339F11091B70375
:1046C000112319F1772767FD7095872F972F0E9487
:1046D000822D23E333E343E35FE30E94922E0E94A3
:1046E0004F2D6093B603612F772767FD7095872F55
:1046F000972F0E94822D23E333E343E35FE30E947D
:10470000922E0E944F2D6093B7031D1624F40E9431
:10471000DA218093B8038091B80387FF05C00E9417
:10472000DA2181958093B8031C1624F40E94DA21C3
:104730008093B9038091B90387FF05C00E94DA21F5
:1047400081958093B903DF91CF911F910C94002341
:10475000DF91CF911F910895E5EBF3E085E0DF0154
:104760001D928A95E9F71092B4031092B30308954D
:10477000833081F128F4813059F08230D1F00895EE
:10478000853009F449C0B8F1863009F456C008955F
:104790002091E301862F90E0820F911D8F3F9105BC
:1047A00020F4620F6093E30108958FEF8093E3019B
:1047B00008952091E201862F90E0820F911D8F3F96
:1047C000910520F4620F6093E20108958FEF8093CA
:1047D000E20108952091E101862F90E0820F911D62
:1047E0008F3F910520F4620F6093E10108958FEFF0
:1047F0008093E10108952091E001862F90E0820FDF
:10480000911D8F3F910520F4620F6093E0010895A0
:104810008FEF8093E00108952091DF01862F90E0D3
:10482000820F911D8F3F910520F4620F6093DF018D
:1048300008958FEF8093DF0108952091DE01862F88
:1048400090E0820F911D8F3F910520F4620F6093DD
:10485000DE0108958FEF8093DE010895833011F11A
:1048600028F4813049F0823091F00895853081F14B
:1048700020F18630C1F108958091E301681720F49A
:10488000861B8093E30108951092E30108958091BF
:10489000E201681720F4861B8093E20108951092CC
:1048A000E20108958091E101681720F4861B80934E
:1048B000E10108951092E10108958091E0016817E7
:1048C00020F4861B8093E00108951092E001089582
:1048D0008091DF01681720F4861B8093DF01089523
:1048E0001092DF0108958091DE01681720F4861B85
:1048F0008093DE0108951092DE0108958732F8F466
:104900008E3108F080C08E3009F460C048F48730E2
:1049100009F442C08B3009F48CC0863051F127C0B5
:10492000863109F486C020F4803109F459C01FC0D3
:10493000893109F47EC08B3109F43EC018C0883338
:1049400009F477C050F4893209F46BC0853309F457
:1049500068C0873209F465C00AC0833409F461C0B5
:1049600020F48A3308F04DC002C0883461F080E042
:1049700008958091AB03817F8E7F8093AB0381E0AC
:104980008093BB0308950E94E7190E949A0E0E942B
:104990001E080E9467214DC09091AB03892F80951E
:1049A000817080FB90F919F09660986027C0997F1C
:1049B000977F9093AB033DC09091AB0391FB882709
:1049C00080F921E0822780FB91F913C09091AB031D
:1049D00092FB882780F921E0822780FB92F909C0A9
:1049E0009091AB0393FB882780F921E0822780FB1D
:1049F00093F99093AB038823E1F091609093AB031C
:104A0000089527EC01C023EE280F61E070E080E0FC
:104A100090E004C0660F771F881F991F2A95D2F770
:104A200004C061E070E080E090E00E94E51D0E941B
:104A3000E71981E0089580E0089580E008958E519F
:104A40008A3030F4E82FF0E0E059FD4F808108957E
:104A500080E00895CF93C82F8091BB03813069F027
:104A600018F08230B1F180C0E091DC01F091DD01FD
:104A70008081823209F07AC007C0E091DC01F091B8
:104A8000DD018081823249F48C2F0E941B25811127
:104A90001DC08C2F0E947E241AC08C2F0E941D25C1
:104AA000811114C0C43179F048F4CB3079F0C031B1
:104AB00009F060C082E08093BB0308C0C93219F0DE
:104AC000C83321F057C01092BB0354C081E08170FD
:104AD00053C0C93289F118F5C43171F1B0F4C7304F
:104AE00009F046C08EE18093E30182E38093E20106
:104AF0008AE08093E10184E18093E00188E0809383
:104B0000DF0188E28093DE0133C082EE8C0F8630B5
:104B100078F58C2F0E941F258093BA0329C0CE34CC
:104B2000E9F020F4CB3421F56AE013C0C13579F007
:104B3000C235F1F461E00DC08091BA03882319F009
:104B40001092BA0315C081E08093BB0315C061E0E9
:104B500006C08091BA030E94B8230AC06AE080911F
:104B6000BA030E942E2404C01092BB0380E004C04C
:104B700081E002C080E0ABCFCF9108958091C40363
:104B80000895CF93DF9300D01F92CDB7DEB7209169
:104B9000E803243019F523E029839B838A8320933B
:104BA000E9008FEF9091E800815095FD06C095EDEA
:104BB0009A95F1F700008111F5CF8091E80085FF0B
:104BC0000DC040E050E063E070E0CE0101960E942D
:104BD000F7278091E8008E778093E8000F900F9080
:104BE0000F90DF91CF910895CF93DF9300D01F9264
:104BF000CDB7DEB72091E803243021F522E02983E8
:104C00009B838A8383E08093E9008FEF9091E80093
:104C1000815095FD06C095ED9A95F1F70000811140
:104C2000F5CF8091E80085FF0DC040E050E063E0E3
:104C300070E0CE0101960E94F7278091E8008E7700
:104C40008093E8000F900F900F90DF91CF9108951F
:104C50002091E8032430F1F422E02093E9002FEFC3
:104C60003091E800215035FD06C035ED3A95F1F759
:104C700000002111F5CF2091E80025FF0BC040E096
:104C800050E065E070E00E94F7278091E8008E77A1
:104C90008093E8000895CF93DF93EC018091E803BF
:104CA000843039F581E08093E9008FEF9091E8003E
:104CB000815095FD06C095ED9A95F1F700008111A0
:104CC000F5CF8091E80085FF14C040E050E068E037
:104CD00070E0CE010E94F7278091E8008E778093E4
:104CE000E80088E0FE01ACEBB3E001900D928A95FC
:104CF000E1F7DF91CF9108958091E703811109C019
:104D00000E9489290E94E6298091E20084608093B4
:104D1000E20008951092E7030895089508950C9411
:104D2000D52042E061EC81E00E94032942E061EC81
:104D300082E00E94032942E061EC83E00C940329A5
:104D40008091EA03833009F453C030F4813071F06C
:104D5000823009F48CC008958A3009F478C08B3011
:104D600009F45EC0893009F09AC020C08091E9033F
:104D7000813A09F094C08091E800877F8093E80031
:104D80008091ED039091EE03892B21F060E080E0AB
:104D900090E003C068E08CEB93E070E00E94402854
:104DA0008091E8008B778093E80008958091E90373
:104DB000813209F074C08091ED039091EE03892B4C
:104DC00009F06DC08091E800877F8093E8008091B2
:104DD000E80082FD05C08091E8038111F8CF5FC033
:104DE0008091F1008093C4038091E8008B7753C0D9
:104DF0008091E903813A09F052C08091ED039091CE
:104E0000EE03892B09F04BC08091E800877F8093E7
:104E1000E8008091E80080FFFCCF8091EE0136C071
:104E20008091E9038132D9F58091ED039091EE03F1
:104E3000892BA9F58091E800877F8093E8000E9484
:104E400038298091EB038093EE010C94E71980914F
:104E5000E903813221F58091E800877F8093E800A3
:104E60000E9438298091EC038093C50308958091B6
:104E7000E903813AA1F48091E800877F8093E800FC
:104E80008091E80080FFFCCF8091C5038093F10002
:104E90008091E8008E778093E8000C94382908957B
:104EA00084B7877F84BF88E10FB6F8948093600051
:104EB000109260000FBE80E8809361001092610044
:104EC0000E947A150E9489290E94E6298091E200B9
:104ED00084608093E20078940E94612C0E947C158B
:104EE00084EE91E00E9427158091E803853069F4F3
:104EF0000E9495208091E6038823B1F30E94C02090
:104F0000882391F30E94E127EFCF0E948215ECCF16
:104F1000292F332723303105A9F06CF421303105D6
:104F200009F442C02230310509F043C084E590E025
:104F30002EE238E042C021323105C9F0223231057B
:104F400019F137C099278130910541F082309105E0
:104F500041F0892B71F5EAE2F8E005C0E2E1F8E002
:104F600002C0EAEFF7E0849190E09F0126C0633031
:104F700000F5E62FF0E0EE0FFF1FED57FD4F20810B
:104F8000318189E090E019C0633098F4E62FF0E0B9
:104F9000DF01AA0FBB1FA358BD4F2D913C91E658CE
:104FA000FD4F808190E009C082E190E022E838E086
:104FB00004C080E090E020E030E0FA0131832083FB
:104FC000089580E189BD82E189BD09B400FEFDCF6D
:104FD0008091D8008F7D8093D8008091E00082601E
:104FE0008093E0008091E00081FDFCCF0895CF9296
:104FF000DF92EF92FF920F931F93CF93DF937C0189
:105000008B01EA010E945929811131C0209731F0AA
:1050100088819981081B190BE80EF91EC12CD12C2F
:105020000115110519F18091E80085FD14C08091EA
:10503000E8008E778093E800209741F0888199817D
:105040008C0D9D1D9983888385E011C00E9459298C
:10505000882331F30CC0F70181917F018093F10027
:1050600001501109FFEFCF1ADF0ADACF80E0DF919C
:10507000CF911F910F91FF90EF90DF90CF90089507
:105080002091EF033091F0032617370748F06115A0
:10509000710539F42091E8002E772093E80001C0D3
:1050A000B901FC0120E061157105B9F18091E803B7
:1050B000882309F440C0853009F43FC08091E8009E
:1050C00083FD3DC08091E80082FF06C08091E8002A
:1050D00082FF26C080E008958091E80080FFE3CF42
:1050E0002091F3008091F20090E0922B6115710500
:1050F00051F08830910538F421912093F1006150EE
:1051000071090196F3CF21E0089709F020E0809122
:10511000E8008E778093E800C6CF2111C7CFD6CFA5
:105120008091E803882339F0853039F08091E800D8
:1051300083FFCCCF04C082E0089583E0089581E02E
:1051400008952091EF033091F0032617370748F0B8
:105150006115710539F42091E8002E772093E8005D
:1051600001C0B901FC0120E061157105C1F1809118
:10517000E803882309F441C0853009F440C08091D8
:10518000E80083FD3EC08091E80082FF06C0809168
:10519000E80082FF27C080E008958091E80080FF4A
:1051A000E3CF2091F3008091F20090E0922B611503
:1051B000710559F08830910540F424912093F10055
:1051C0003196615071090196F2CF21E0089709F0FC
:1051D00020E08091E8008E778093E800C5CF211110
:1051E000C6CFD5CF8091E803882339F0853039F0D8
:1051F0008091E80083FFCBCF04C082E0089583E074
:10520000089581E00895982F973058F59093E9001C
:10521000981739F07091EC002091ED005091F0005A
:1052200003C0242F762F50E021FF19C03091EB00EE
:105230003E7F3093EB003091ED003D7F3093ED00E9
:105240003091EB0031603093EB007093EC002093D1
:10525000ED005093F0002091EE0027FF07C09F5F04
:10526000D3CF8F708093E90081E0089580E00895A6
:105270008091E90387FD05C08091E80080FF0EC0A2
:1052800012C08091E80082FD05C08091E803811181
:10529000F8CF08958091E8008B7708C08091E803EB
:1052A0008111EACF08958091E8008E778093E8001D
:1052B00008958091E4009091E50045E62091EC008E
:1052C00020FF21C02091E80020FD21C02091E803AB
:1052D000222389F0253089F02091EB0025FD0FC0B5
:1052E0002091E4003091E5002817390739F3415047
:1052F00041F0C901E3CF82E0089583E0089581E0A1
:10530000089584E008952091E80022FFDFCF80E037
:1053100008950E94F7290E94FF29E0EEF0E08081C5
:1053200081608083E8EDF0E080818F77808319BC15
:10533000A7EDB0E08C918E7F8C9380818F7E8083EF
:105340001092E70308950F931F93CF93DF930E946A
:10535000F7290E94FF29C8EDD0E088818F778883E4
:1053600088818068888388818F7D888319BC1092AA
:10537000E8031092E4031092E6031092E50300EEB6
:1053800010E0F80180818B7F808388818160888331
:1053900042E060E080E00E940329E1EEF0E08081DD
:1053A0008E7F8083E2EEF0E0808181608083808167
:1053B00088608083F80180818E7F8083888180610E
:1053C0008883DF91CF911F910F910895E8EDF0E070
:1053D00080818F7E8083E7EDF0E080818160808333
:1053E00084E082BF81E08093E7030C94A329E8ED79
:1053F000F0E080818E7F80831092E2000895109209
:10540000DA001092E10008951F920F920FB60F92EA
:1054100011242F933F934F935F936F937F938F93B9
:105420009F93AF93BF93EF93FF938091E10082FF2F
:105430000BC08091E20082FF07C08091E1008B7F6A
:105440008093E1000E94602C8091DA0080FF1FC0F1
:105450008091D80080FF1BC08091DA008E7F8093FE
:10546000DA008091D90080FF0DC080E189BD82E122
:1054700089BD09B400FEFDCF81E08093E8030E945E
:105480007C2605C019BC1092E8030E948A268091F0
:10549000E10080FF19C08091E20080FF15C080917B
:1054A000E2008E7F8093E2008091E2008061809331
:1054B000E2008091D80080628093D80019BC85E01A
:1054C0008093E8030E948E268091E10084FF30C023
:1054D0008091E20084FF2CC080E189BD82E189BD1A
:1054E00009B400FEFDCF8091D8008F7D8093D80055
:1054F0008091E1008F7E8093E1008091E2008F7EB9
:105500008093E2008091E20081608093E2008091CC
:10551000E403882311F084E007C08091E30087FF53
:1055200002C083E001C081E08093E8030E948F26DF
:105530008091E10083FF29C08091E20083FF25C0B4
:105540008091E100877F8093E10082E08093E8030F
:105550001092E4038091E1008E7F8093E1008091BE
:10556000E2008E7F8093E2008091E2008061809370
:10557000E20042E060E080E00E9403298091F000B8
:1055800088608093F0000E948D26FF91EF91BF917B
:10559000AF919F918F917F916F915F914F913F91CB
:1055A0002F910F900FBE0F901F9018951F920F9282
:1055B0000FB60F9211242F933F934F935F936F93E6
:1055C0007F938F939F93AF93BF93CF93EF93FF936B
:1055D000C091E900CF708091EC001092E9008091B9
:1055E000F000877F8093F00078940E94122B109235
:1055F000E9008091F00088608093F000C093E9009A
:10560000FF91EF91CF91BF91AF919F918F917F913A
:105610006F915F914F913F912F910F900FBE0F901F
:105620001F9018951F93CF93DF93CDB7DEB7AA973E
:105630000FB6F894DEBF0FBECDBFE9EEF3E0809168
:10564000F100819323E0E13FF207C9F70E94A02611
:105650008091E80083FF1CC12091E9033091EA03A7
:10566000832F90E08A30910508F012C1FC01EE57BB
:10567000FF4F0C947430203881F0223809F008C1B3
:105680008091ED038F708093E9008091EB0085FBA2
:10569000882780F91092E90006C08091E503909177
:1056A000E603911182609091E800977F9093E80063
:1056B0008093F1001092F100C5C0822F8D7F09F018
:1056C000E7C0222319F0223061F0E2C08091EB03A1
:1056D000813009F0DDC0333009F080E08093E603CB
:1056E00028C08091EB03811124C02091ED032F701D
:1056F00009F4CEC02093E9008091EB0080FF19C02F
:105700008091EB00333011F4806211C0806180938E
:10571000EB0081E090E0022E01C0880F0A94EAF7C6
:105720008093EA001092EA008091EB0088608093F9
:10573000EB001092E9008091E800877F86C021117C
:10574000A7C01091EB031F778091E3008078812B35
:105750008093E3008091E800877F8093E8000E94B7
:1057600038298091E80080FFFCCF8091E3008068B9
:105770008093E300112311F083E001C082E0809365
:10578000E80386C02058223008F082C08091EB03E5
:105790009091EC038C3D23E0920779F583E08A83B6
:1057A0008AE289834FB7F894DE01139620E03EE049
:1057B00051E2E32FF0E050935700E49120FF03C043
:1057C000E295EF703F5FEF708E2F90E0EA3010F0BF
:1057D000C79601C0C0968D939D932F5F243149F7E2
:1057E0004FBF8091E800877F8093E8006AE270E015
:1057F000CE0101960E94402814C0AE014F5F5F4F5A
:105800006091ED030E948827009709F441C0209120
:10581000E800277F2093E800BC0189819A810E94DB
:10582000A1288091E8008B778093E80031C0203870
:1058300079F58091E800877F8093E8008091E40308
:105840008093F1008091E8008E778093E8000E94B9
:1058500038291EC021111CC09091EB039230C0F476
:105860008091E800877F8093E8009093E4030E9492
:1058700038298091E403811104C08091E30087FFFF
:1058800002C084E001C081E08093E8030E94912679
:105890008091E80083FF0AC08091E800877F8093B1
:1058A000E8008091EB0080628093EB00AA960FB62F
:1058B000F894DEBF0FBECDBFDF91CF911F91089549
:1058C0000895CF938091E8038823B1F08091E90097
:1058D0008F709091EC0090FF02C090E801C090E0C2
:1058E000C92FC82B1092E9008091E80083FD0E9427
:1058F000122BCF70C093E900CF9108955058BB2769
:10590000AA270ED0D1C1C2D130F0C7D120F031F4D6
:105910009F3F11F41EF4B7C10EF4E095E7FB9FC161
:10592000E92FD3D180F3BA1762077307840795076D
:1059300018F071F49EF5EBC10EF4E0950B2EBA2F22
:10594000A02D0B01B90190010C01CA01A001112485
:10595000FF27591B99F0593F50F4503E68F11A1631
:10596000F040A22F232F342F4427585FF3CF4695C2
:1059700037952795A795F0405395C9F77EF41F16E4
:10598000BA0B620B730B840BBAF09150A1F0FF0FAE
:10599000BB1F661F771F881FC2F70EC0BA0F621F9A
:1059A000731F841F48F4879577956795B795F7958A
:1059B0009E3F08F0B3CF9395880F08F09927EE0F1C
:1059C00097958795089527D108F481E008950CD024
:1059D0006BC163D140F05AD130F021F45F3F19F030
:1059E0003EC1511195C14FC170D198F39923C9F3AC
:1059F0005523B1F3951B550BBB27AA2762177307D5
:105A0000840738F09F5F5F4F220F331F441FAA1F88
:105A1000A9F333D00E2E3AF0E0E830D09150504048
:105A2000E695001CCAF729D0FE2F27D0660F771FF6
:105A3000881FBB1F261737074807AB07B0E809F0D8
:105A4000BB0B802DBF01FF2793585F4F2AF09E3F6D
:105A5000510568F004C15CC15F3FECF3983EDCF394
:105A6000869577956795B795F7959F5FC9F7880FE6
:105A7000911D9695879597F90895E1E0660F771F38
:105A8000881FBB1F621773078407BA0720F0621BC9
:105A9000730B840BBA0BEE1F88F7E095089504D0C2
:105AA0006894B11135C1089518D188F09F5790F0CE
:105AB000B92F9927B751A0F0D1F0660F771F881F33
:105AC000991F1AF0BA95C9F712C0B13081F01FD1F1
:105AD000B1E008951CC1672F782F8827B85F39F08F
:105AE000B93FCCF3869577956795B395D9F73EF492
:105AF00090958095709561957F4F8F4F9F4F08953A
:105B0000E89409C097FB3EF4909580957095619557
:105B10007F4F8F4F9F4F9923A9F0F92F96E9BB270D
:105B20009395F695879577956795B795F111F8CF89
:105B3000FAF4BB0F11F460FF1BC06F5F7F4F8F4FF4
:105B40009F4F16C0882311F096E911C0772321F0EA
:105B50009EE8872F762F05C0662371F096E8862F82
:105B600070E060E02AF09A95660F771F881FDAF7D9
:105B7000880F9695879597F9089588D018F011F0B9
:105B80008CD038F480C0C4C0E92F9FD0B0F3552327
:105B9000C9F3E7FB6217730784079507A8F199F328
:105BA000E92FFF2788232AF03197660F771F881F78
:105BB000DAF7952F5527442332F091505040220FA9
:105BC000331F441FD2F7BB27E91BF50B621B730B76
:105BD000840BB109C1F222F4620F731F841FB11D3F
:105BE00031972AF0660F771F881FBB1FEFCF9150A8
:105BF00050405AF041F0882332F0660F771F881F1B
:105C000091505040C1F7939530C086957795679530
:105C10009F5FD9F7F8CF990F0008550FAA0BE0E85E
:105C2000FEEF16161706E807F907C0F0121613065E
:105C3000E407F50798F0621B730B840B950B39F49E
:105C40000A2661F0232B242B252B21F408950A2604
:105C500009F4A140A6958FEF811D811D089597F944
:105C60009F6780E870E060E008959F3F31F09150B9
:105C700020F4879577956795B795880F911D969530
:105C8000879597F908959FEF80EC089500240A9472
:105C90001616170618060906089500240A94121607
:105CA0001306140605060895092E0394000C11F43A
:105CB000882352F0BB0F40F4BF2B11F460FF04C0E7
:105CC0006F5F7F4F8F4F9F4F089557FD9058440F40
:105CD000551F59F05F3F71F04795880F97FB991F4B
:105CE00061F09F3F79F08795089512161306140608
:105CF000551FF2CF4695F1DF08C016161706180695
:105D0000991FF1CF86957105610508940895E8946F
:105D1000BB2766277727CB0197F908957CDF08F426
:105D20008FEF08950BD0C0CFB1DF28F0B6DF18F0A9
:105D3000952309F094CFA7CF1124EACFC6DFA0F3B3
:105D4000959FD1F3950F50E0551F629FF001729F10
:105D5000BB27F00DB11D639FAA27F00DB11DAA1F2F
:105D6000649F6627B00DA11D661F829F2227B00D7C
:105D7000A11D621F739FB00DA11D621F839FA00D07
:105D8000611D221F749F3327A00D611D231F849F57
:105D9000600D211D822F762F6A2F11249F575040AE
:105DA0008AF0E1F088234AF0EE0FFF1FBB1F661F49
:105DB000771F881F91505040A9F79E3F510570F002
:105DC0004ECFA6CF5F3FECF3983EDCF386957795F8
:105DD0006795B795F795E7959F5FC1F7FE2B880FFD
:105DE000911D9695879597F90895FA01EE0FFF1F7B
:105DF00030962105310599F16115710561F48038FE
:105E0000BFE39B0749F168949038810561F08038C1
:105E1000BFEF9B0741F0992342F5FF3FE1053105B4
:105E2000210511F1E8940894E795D901AA2329F4F2
:105E3000AB2FBE2FF85FD0F310C0FF5F70F4A695B4
:105E4000E0F7F73950F019F0FF3A38F49F779F9355
